S00B00004142532E7372656343
S11300000C9443020C94BE0A0C94F20A0C94600201
S11300100C9460020C9460020C9460020C94240B07
S11300200C9460020C9460020C9460020C946002C4
S11300300C9460020C9460020C94CA070C94600245
S11300400C9460020C9460020C9460020C946002A4
S11300500C9460020C9469020C9460020C9460028B
S11300600C9460020C9460024252414B494E47008A
S11300702020464C59444F5753204D4F544F522043
S1130080200020205475726E696E6720526967687B
S11300907420200020205475726E696E67204C65B0
S11300A066742020200020446F75626C65205369BB
S11300B0676E616C6572004445562D49443A464D5D
S11300C02D303030312D41004649524D5741524573
S11300D02056312E302E353000286329203230311D
S11300E0332041534C485243430020424C41434B3C
S11300F0424F5820494E464F53200053594E5420E6
S1130100494E495449414C495A454420004C4544C0
S113011020494E495449414C495A454420005345CD
S11301204E5320494E495449414C495A4544005084
S11301304F525420494E495449414C495A45440070
S1130140000000000000242E240000070007000423
S113015004020F000404001D1723130864623649C7
S11301605522500005030000001C224100004122DA
S11301701C00082A1C2A0808083E08080050300001
S113018000080808080800303000002010080402A5
S11301903E5149453E00427F40004261514946215B
S11301A041454B311814127F1027454545393C4AC7
S11301B04949300171090503364949493606494917
S11301C0291E0036360000005636000000081422AE
S11301D04114141414144122140800020151090694
S11301E0324979413E7E1111117E7F494949363E9B
S11301F0414141227F4141221C7F494949417F09B4
S11302000901013E414151327F0808087F00417FC6
S113021041002040413F017F081422417F4040407B
S1130220407F0204027F7F0408107F3E4141413E2B
S11302307F090909063E4151215E7F091929464675
S11302404949493101017F01013F4040403F1F209E
S113025040201F7F2018207F631408146303047850
S11302600403615149454300007F414102040810E1
S11302702041417F0000040201020440404040400C
S1130280000102040020545454787F484444383810
S113029044444420384444487F3854545418087E15
S11302A0090102081454543C7F0804047800447D76
S11302B040002040443D00007F10284400417F401E
S11302C0007C041804787C080404783844444438D6
S11302D07C14141408081414187C7C0804040848BA
S11302E054545420043F4440203C4040207C1C2073
S11302F040201C3C4030403C44281028440C5050C2
S1130300503C4464544C44000836410000007F00D3
S11303100000413608000201020402081C2A0808F1
S11303207E1111117E7F494949337F494949367FFE
S113033001010103E0514F41FF7F494949497708D1
S11303407F087749494949367F1008047F7C211288
S1130350097C7F0814224120413F017F7F020C0267
S11303607F7F0808087F3E4141413E7F0101017FB4
S11303707F090909063E4141412201017F0101270C
S11303804848483F1C227F221C63140814637F40A2
S11303904040FF070808087F7F407F407F7F407F01
S11303A040FF017F4848307F4830007F7F48483015
S11303B000224149493E7F083E413E462919097FB2
S11303C020545454783C4A4A49317C545428007C83
S11303D00404040CE0544C44FC38545454086C1089
S11303E07C106C44445454287C2010087C784224AB
S11303F012787C1028440020443C047C7C081008BB
S11304007C7C1010107C38444444387C0404047C04
S11304107C14141408384444444404047C04040C38
S11304205050503C18247E241844281028447C4002
S11304304040FC0C1010107C7C407C407C7C407C58
S113044040FC047C5050207C5020007C7C50502088
S11304500028445454387C10384438085434147CEC
S11304604C6F6164696E672E2E2E00464C59444FC2
S11304705753204D4F544F5200417273736C656E45
S1130480736F6674000011241FBECFEFD8E0DEBF87
S1130490CDBF11E0A0E0B1E0ECE5F2E202C00590CE
S11304A00D92AA37B107D9F725E0AAE7B1E001C058
S11304B01D92AE30B207E1F70E943D060C942C1158
S11304C00C9400008EE080937C008DEE80937A0083
S11304D008951F920F920FB60F921124CF92DF92BC
S11304E0EF92FF922F933F934F935F936F937F937A
S11304F08F939F93AF93BF93EF93FF936091780093
S113050070917900769567957695679570E080E0AF
S113051090E00E94030D9B01AC0160E070E48CE864
S113052093E40E94680C6B017C010E94D00C7093D0
S1130530E4046093E304882777FD8095982F0E9454
S1130540030D9B01AC01C701B6010E94030C20E01E
S113055030E048EC52E40E948F0D0E94D50C609369
S1130560E504FF91EF91BF91AF919F918F917F919E
S11305706F915F914F913F912F91FF90EF90DF909A
S1130580CF900F900FBE0F901F90189515B88FEF56
S113059084B915B818B817B81BB88AB908950E9459
S11305A0C6020E945F0A0E9462020E94680A1092B8
S11305B0F40460E080E00E94F4088FE291E00E947D
S11305C0E3080E94010B8EE191E00E94E3080E947F
S11305D043078DE091E00E94E3080E94580B8BEFE3
S11305E090E00E94E30864E080E00E94F40880E068
S11305F00E9411098AEE90E00E94E30889ED90E0E0
S11306000E94E30888EC90E00E94E30887EB90E006
S11306100E94E3082FED82E292E021508040904056
S1130620E1F700C000000E944B0781E00E9411091D
S11306300E9437080E947C0A0E94770781E0809319
S113064004050E94540708950F931F93CF93DF93DB
S1130650CDB7DEB7CB55D1090FB6F894DEBF0FBEC8
S1130660CDBF2091050530910605332364F5C901FA
S113067064E670E00E94F20DAC01992324F444274F
S11306805527481B590B5F934F93C90164E670E0EB
S11306900E94F20DCB01992324F488279927861B05
S11306A0970B9F938F9380E091E09F938F93CE015C
S11306B0C8969F938F930E945B0E0FB6F894DEBF8B
S11306C00FBECDBF18C0C90164E670E00E94F20DF0
S11306D09F938F937F936F9381E091E09F938F9388
S11306E0CE01C8969F938F930E945B0E0FB6F89429
S11306F0DEBF0FBECDBF8091DC049091DD0420915C
S1130700D5043091D604281B390B3F932F932091A5
S1130710DE041F922F939F938F938BE091E09F931E
S11307208F93CE0101969F938F930E945B0E8091CD
S1130730DB041F928F93E9EDF4E081818F93808134
S11307408F9381E291E09F938F93CE0147969F937D
S11307508F930E945B0E8091F1048F938091F0043B
S11307608F9383E391E09F938F93CE01845B9F4F9C
S11307709F938F930E945B0E8091FA041F928F9334
S1130780E8EFF4E081818F9380818F938CE391E093
S11307909F938F93CE0189969F938F930E945B0EB4
S11307A00FB6F894DEBF0FBECDBF8091EC041F924C
S11307B08F93EAEEF4E081818F9380818F9381E0BF
S11307C091E09F938F938E010F5B1F4F1F930F93A5
S11307D00E945B0E8091E5041F928F93E3EEF4E098
S11307E081818F9380818F938BE491E09F938F938A
S11307F0CE018B5A9F4F9F938F930E945B0E64E0B0
S113080080E00E94F408CE01C8960E94D40864E0F7
S11308108BE00E94F408C8010E94D40800E02BE297
S11308204FE56BE280E00E94900960E080E00E9466
S1130830F4080FB6F894DEBF0FBECDBF499B0CC0C1
S113084080910005813041F480E00E94110986EA1C
S113085090E00E94E3081DC0499B08C080E00E940C
S1130860110984E990E00E94E30813C08091000517
S1130870813041F480E00E94110982E890E00E94F6
S1130880E30807C080E00E94110980E790E00E941D
S1130890E30881E00E941109809101058130C9F4C7
S11308A061E080E00E94F40888E690E00E94E3089A
S11308B066E080E00E94F408CE0101960E94D4080C
S11308C067E080E00E94F408CE0147960E94D408B5
S11308D019C061E080E00E94F408CE01845B9F4F60
S11308E00E94D40866E080E00E94F40887E591E065
S11308F00E94D40867E080E00E94F40888E691E052
S11309000E94D40861E089E00E94F408CE018B5A69
S11309109F4F0E94D40800E022E14FE562E180E0AD
S11309200E94900963E083E00E94F408CE01899656
S11309300E94D408C55ADF4F0FB6F894DEBF0FBE2D
S1130940CDBFDF91CF911F910F910895CF92DF9288
S1130950EF92FF920F931F93CF93DF930E94B70AF6
S11309606B01E82E8E2D90E08C0D9D1D892B09F4D2
S11309701CC12091EA043091EB040F2EF4E6FF2E03
S1130980F02DF29EC001F39E900D1124CCEED4E024
S11309902881820F911D9093F3048093F204609157
S11309A0FD047091FE048091FF044E2D96010E9477
S11309B0DD06A82FCB018093EA049093EB04A09367
S11309C0EC04082F192FF09EC001F19E900D112404
S11309D02881820F911D9093D4048093D304209195
S11309E0F2043091F304821B930B909306058093D9
S11309F005058091F8049091F9049093E1048093A3
S1130A00E0048091FA048093E2042091E704309199
S1130A10E8044091E9048E2DB6010E94DD0660933E
S1130A20F8047093F9048093FA042091F50430914A
S1130A30F6044091F7048E2DB6010E94DD069B0159
S1130A40220F331F660F771F660F771F660F771FFE
S1130A50620F731F7093F1046093F0048091010599
S1130A60882309F495C02091D3043091D40421152E
S1130A70310509F480C080910505909106059923FC
S1130A800CF079C0BC01992324F466277727681BEE
S1130A90790BC901992324F488279927821B930B86
S1130AA00E9414076093D9047093DA048093DB04E2
S1130AB08091050590910605880F991F6AE070E002
S1130AC00E94F20D9B01772324F422273327261B4F
S1130AD0370B009FA001019F500D500D1124CA0136
S1130AE0880F991F440F551F440F551F440F551F5E
S1130AF0840F951F99231CF4919581959109B9014F
S1130B000E9414076093DC047093DD048093DE0478
S1130B100F5F1F4F8091050590910605880F991F5F
S1130B206AE070E00E94F20D9B01772324F42227EF
S1130B303327261B370B009FA001019F500D500D3A
S1130B401124CA01880F991F440F551F440F551FC4
S1130B50440F551F840F951F99231CF4919581957B
S1130B609109B9010E9414076093D5047093D604C7
S1130B708093D70438C01092DD041092DC041092E4
S1130B80DE041092DA041092D9041092DB042BC014
S1130B901092DD041092DC041092DE041092DA0448
S1130BA01092D9041092DB041EC01092D404109247
S1130BB0D3041092EB041092EA041092EC04109205
S1130BC00605109205051092DD041092DC041092C3
S1130BD0DE041092DA041092D9041092DB0410920D
S1130BE0F1041092F0042091D3043091D404809144
S1130BF0050590910605820F931F892B31F41092FD
S1130C00FA041092F9041092F804DF91CF911F9125
S1130C100F91FF90EF90DF90CF9008952091F8040A
S1130C203091F9048091E0049091E1042817390788
S1130C30D9F49091FA048091E204981317C00E94A9
S1130C40AB0A90910105891313C00E94A70A9091E1
S1130C50D80489130FC00E94A40A91E020910005D2
S1130C60821309C090E007C091E005C091E003C081
S1130C7091E001C091E0892F08950E94CF020E9463
S1130C8066071092FB0426E030E03093F6042093CC
S1130C90F5041092F70427E030E03093E804209341
S1130CA0E7048DE28093E90422E030E03093FE040F
S1130CB02093FD0487E08093FF041092D4041092E3
S1130CC0D3041092F3041092F204109206051092C9
S1130CD005051092F9041092F80487E893E101974E
S1130CE0F1F700C0000081E08093F4040E94240323
S1130CF0D1E01FEF8091FB048A3029F40E94A604FE
S1130D000E940E06C82FC13061F40E94A70A809386
S1130D10D8040E94A40A809300050E94AB0A809321
S1130D2001058091D804811105C04C9B03C05C98D7
S1130D300E94FA0B80910005811105C04F9B03C0EE
S1130D405F980E94FA0B8091010581110BC01092EB
S1130D50ED040E945C078091F404811109C0D093D2
S1130D60F40406C0D093ED040E945C071092F404CE
S1130D70C13029F40E9424031093FB04C0E0809145
S1130D80FB048F5F8093FB040E944B07489B0EC0BB
S1130D90499B0CC04B9B0AC0D093ED040E945C0796
S1130DA060EB74E084EF91E00E948B0B83ED90E3A1
S1130DB00197F1F700C000009DCFE62FF72FBF0188
S1130DC0660F771FEE0FFF1FEE0FFF1FEE0FFF1FC3
S1130DD0E60FF71F5DEC859F812D1124869586957E
S1130DE08695E80FF11D822F932F9C01220F331F4C
S1130DF0880F991F880F991F880F991F280F391F73
S1130E00459F512D1124569556955695250F311D04
S1130E10E29FC001E39F900DF29F900D112464E6C0
S1130E2070E00E94F20D0895CF939B010E94F20D91
S1130E30F62FE72FAC01440F551F880F991F880F19
S1130E40991F880F991F840F951FB9010E94F20DF5
S1130E50C62FAC01440F551F880F991F880F991F87
S1130E60880F991F840F951FB9010E94F20D262F38
S1130E709C2F990F892F880F880F890F6F2F7E2F32
S1130E80820FCF9108951BB88FEF8AB91092D804BE
S1130E90109200050895289A83ED90E30197F1F7E5
S1130EA000C000002898089580910405882311F05B
S1130EB05D9A08955D9808958091ED04882319F052
S1130EC02A9A5E9A08955E982A98089584B5826055
S1130ED084BD86EA87BDEEE6F0E08081826080838F
S1130EE0789485B5846085BD10920705089588E5DA
S1130EF09BE10E94EC0B5D9A5E9A5F9A5C9A2A9A37
S1130F002FE38DE093E0215080409040E1F700C052
S1130F1000000E94FA0B83E294EF0197F1F700C0FE
S1130F20000088E59BE10E94EC0B83E294EF0197BB
S1130F30F1F700C000000E94FA0B5D985E985C987F
S1130F405F982A9808958091FC04811114C0499BEC
S1130F5005C05C9A86ED91E00E94EC0B809100053F
S1130F60813029F45F9A86ED91E00E94EC0B81E0D8
S1130F708093FC040895499B03C05C980E94FA0B7B
S1130F8080910005813019F45F980E94FA0B109249
S1130F90FC0408951F920F920FB60F9211242F9301
S1130FA03F934F935F936F937F938F939F93AF93ED
S1130FB0BF93EF93FF93809107058F5F809307059D
S1130FC0809107058A3021F40E94A3071092070537
S1130FD0FF91EF91BF91AF919F918F917F916F910D
S1130FE05F914F913F912F910F900FBE0F901F90E3
S1130FF0189541984398882339F120917B013091C9
S11310007A01822F90E0FC01EE0FFF1FEE0FFF1F0D
S1131010EE0FFF1FE80FF91FE30FF11DE458FE4F19
S113102060832F5F203618F420937B0105C0109253
S11310307B013F5F30937A0180917A01893010F00F
S113104010927A01429A01C04298439A88E04398E8
S1131050662314F4429A01C04298439A660F9BE0B7
S11310609A95F1F70000815091F7419A0895CF9332
S1131070DF9360E480E00E94F90760EB80E00E9467
S1131080F90760E180E00E94F90760E080E00E94D7
S1131090F90710927B0110927A01C0E6D3E060E078
S11310A081E00E94F90721972097C9F7DF91CF913A
S11310B0089587B18F6087B94198409883EC99E08F
S11310C00197F1F700C00000409A62EE80E00E94B0
S11310D0F9076AE380E00E94F9076FEE80E00E945E
S11310E0F90764E080E00E94F90760ED80E00E9467
S11310F0F90760E280E00E94F90760E980E00E945D
S1131100F90764EA80E00E94F9076FE280E00E9438
S1131110F90760E480E00E94F90760EB80E00E9438
S1131120F90760E180E00E94F90760E080E00E9436
S1131130F90768EC80E00E94F90761EA80E00E9408
S1131140F9076CEA80E00E94F90767E080E00E94FA
S1131150F9076FEA80E00E94F9070E9437080895B2
S11311601F93CF93DF9388230CF48054C82FD0E0CF
S1131170A097CE01880F991F880F991FC80FD91FF8
S1131180C05CDE4F10E0FE01649181E00E94F9072B
S11311901F5F21961530B9F760E081E00E94F907DE
S11311A0DF91CF911F910895CF93DF93EC01888154
S11311B0882331F021960E94B00889918111FBCFD8
S11311C0DF91CF910895CF93DF93EC01FC018491DB
S11311D0882339F00E94B0082196FE018491811180
S11311E0F9CFDF91CF910895CF93C82FCC0FC80FBB
S11311F0CC0FC0937B0160937A016F70606B80E0C9
S11312000E94F9076C2F6F7080E00E94F9076C2F21
S113121062956F706770606180E00E94F907CF91FA
S11312200895882329F066EA80E00E94F90708956A
S113123067EA80E00E94F9070895CF93C82F80934E
S11312407B0166956695669560937A016F70606B15
S113125080E00E94F9076C2F6F7080E00E94F9070C
S11312606C2F62956F706770606180E00E94F9076F
S1131270CF910895CF93DF93D62FC42F0E941D09D9
S113128080917B0190E020917A0130E0FC01EE0F27
S1131290FF1FEE0FFF1FEE0FFF1FE80FF91FE20FF6
S11312A0F31FE458FE4F6081C13079F018F0C2306A
S11312B0C1F021C0D770E1E0F0E0AF0102C0440FFB
S11312C0551FDA95E2F7642B16C0D770E1E0F0E021
S11312D0AF0102C0440F551FDA95E2F7409564232D
S11312E00AC0D770E1E0F0E0AF0102C0440F551F1F
S11312F0DA95E2F76427FC01EE0FFF1FEE0FFF1FE4
S1131300EE0FFF1F8E0F9F1F280F391FF901E4589E
S1131310FE4F608381E00E94F907DF91CF91089529
S11313206F927F928F929F92AF92BF92CF92DF92F1
S1131330EF92FF920F931F93CF93DF93182F962E64
S1131340C42FC81BDD27C7FDD095DD231CF4D19520
S1131350C195D109E22EE918FF24E7FCF094FF209F
S11313601CF4F194E194F108411718F07724739474
S113137002C077247A94291518F08824839402C033
S113138088248A94CE15DF050CF1EE0CFF1C57015E
S1131390AC1ABD0A6501CC1ADD0ADD23C4F1612C47
S11313A0402F692D812F0E943A09BB2024F4AE0CF2
S11313B0BF1C170D04C0AC0CBD1C170D980C639416
S11313C0862D90E0C817D9075CF721C05E01AA0CEE
S11313D0BB1CE501CE19DF096E01CE18DF08FF2022
S11313E0B4F0612C402F692D812F0E943A09DD232E
S11313F024F4CA0DDB1D980C04C0CC0DDD1D170DA3
S1131400980C6394862D90E0E816F9065CF7DF915A
S1131410CF911F910F91FF90EF90DF90CF90BF90ED
S1131420AF909F908F907F906F900895DF92EF928E
S1131430FF920F931F93CF93DF93D82F162FF42E81
S1131440D22E0023E1F0841710F0D42FF82E1D15AE
S113145018F48D2DD12E182FFD1648F10D2D0BC02B
S11314604E2D6C2F8D2F0E943A09CF5F1C17C0F7A9
S1131470DF5FFD16E0F01D15D8F3C02FF1CF0E2D60
S1131480262F0E9490092D2D4F2D6D2D8D2F0E94FA
S11314909009DA941F5F2D2D4D2F612F8D2F0E94FF
S11314A090092D2D4F2D612F8F2D0E949009DF91D2
S11314B0CF911F910F91FF90EF90DF9008950E94BC
S11314C0590887EA91E60197F1F700C000000895F2
S11314D063E083E00E94F40889E794E00E94E30853
S11314E02FED83E994E0215080409040E1F700C063
S11314F000000E9437080895EF920F9361E082E0A4
S11315000E94F4088BE694E00E94E30865E084E01E
S11315100E94F40880E694E00E94E308E12C01E0D4
S113152021E44DE567E383E00E94160A2FED82E291
S113153092E0215080409040E1F700C000000E94FA
S113154037080F91EF90089589B18170089589B19A
S113155086958170089589B183FB882780F9089561
S1131560109209051092080510920A0508956091D9
S113157008057091090580910A0508951F920F923C
S11315800FB60F9211242F933F934F935F936F9352
S11315907F938F939F93AF93BF93EF93FF93609148
S11315A00C0570910D0588EE93E00E94140760937A
S11315B008057093090580930A0510920D05109291
S11315C00C05FF91EF91BF91AF919F918F917F9106
S11315D06F915F914F913F912F910F900FBE0F909C
S11315E01F9018951F920F920FB60F9211248F938C
S11315F081E080930B058F910F900FBE0F901F9089
S11316001895509851985298539810920B050E942F
S1131610B00A8DB383608DBB82E0809369007894B7
S11316208CE78093B300E0EBF0E0808182608083FC
S1131630E0E7F0E0808182608083E1EBF0E080818C
S113164082608083789408951F920F920FB60F9250
S113165011242F933F934F935F936F937F938F93B3
S11316609F93AF93BF93EF93FF9380910C05909159
S11316700D05019690930D0580930C0580319742DA
S113168031F40E94B00A10920D0510920C05FF91DE
S1131690EF91BF91AF919F918F917F916F915F91E6
S11316A04F913F912F910F900FBE0F901F9018955F
S11316B01092EF041092EE040895880F991F9C0174
S11316C0442737FD4095542F68E478EE81E090E09C
S11316D00E94060EE8E8F0E0318320832091840024
S11316E030918500808191818217930748F480911D
S11316F088009091890001979093850080938400DD
S113170080E4809380008AE08093810008951092A1
S11317108000299808958F929F92AF92BF92CF92A2
S1131720DF92EF92FF920F931F93CF93DF937C018D
S11317306B0181E090E09093EF048093EE04E0E885
S1131740F0E0808183608083C7010E945D0B489B29
S11317502FC0499B2DC04B9B2BC0E70101E010E03B
S1131760AA24A394B12C812C912CCE15DF0539F039
S1131770CC15DD0559F00130110551F402C00A2DD4
S11317801B2D2196CE010E945D0B06C0082D192D3C
S11317902197CE010E945D0B83EF91E00197F1F751
S11317A000C00000489B04C0499B02C04B99DDCF98
S11317B01092800029981092EF041092EE04DF91A9
S11317C0CF911F910F91FF90EF90DF90CF90BF903A
S11317D0AF909F908F9008952091EE043091EF0484
S11317E0232B39F4E0E8F0E02081236020830E9479
S11317F05D0B08958091EE049091EF04892B11F410
S11318000E94870B08955058BB27AA270ED04DC1BC
S11318103ED130F043D120F031F49F3F11F41EF457
S113182033C10EF4E095E7FB29C1E92F4FD180F3D2
S1131830BA17620773078407950718F071F49EF5C9
S113184067C10EF4E0950B2EBA2FA02D0B01B90140
S113185090010C01CA01A0011124FF27591B99F022
S1131860593F50F4503E68F11A16F040A22F232F2E
S1131870342F4427585FF3CF469537952795A7957E
S1131880F0405395C9F77EF41F16BA0B620B730B25
S1131890840BBAF09150A1F0FF0FBB1F661F771F96
S11318A0881FC2F70EC0BA0F621F731F841F48F44B
S11318B0879577956795B795F7959E3F08F0B3CFD1
S11318C09395880F08F09927EE0F979587950895BB
S11318D00CD0EBC0E3D040F0DAD030F021F45F3F1D
S11318E019F0CCC0511115C1CFC0F0D098F3992391
S11318F0C9F35523B1F3951B550BBB27AA276217D0
S11319007307840738F09F5F5F4F220F331F441F14
S1131910AA1FA9F333D00E2E3AF0E0E830D091504C
S11319205040E695001CCAF729D0FE2F27D0660F39
S1131930771F881FBB1F261737074807AB07B0E878
S113194009F0BB0B802DBF01FF2793585F4F2AF08E
S11319509E3F510568F092C0DCC05F3FECF3983EB7
S1131960DCF3869577956795B795F7959F5FC9F7EB
S1131970880F911D9695879597F90895E1E0660F74
S1131980771F881FBB1F621773078407BA0720F0ED
S1131990621B730B840BBA0BEE1F88F7E095089556
S11319A004D06894B111B5C0089598D088F09F57B9
S11319B090F0B92F9927B751A0F0D1F0660F771F97
S11319C0881F991F1AF0BA95C9F712C0B13081F077
S11319D09FD0B1E008959CC0672F782F8827B85F07
S11319E039F0B93FCCF3869577956795B395D9F7D8
S11319F03EF490958095709561957F4F8F4F9F4FE2
S1131A000895E89409C097FB3EF4909580957095ED
S1131A1061957F4F8F4F9F4F9923A9F0F92F96E936
S1131A20BB279395F695879577956795B795F111AB
S1131A30F8CFFAF4BB0F11F460FF1BC06F5F7F4F48
S1131A408F4F9F4F16C0882311F096E911C077235A
S1131A5021F09EE8872F762F05C0662371F096E863
S1131A60862F70E060E02AF09A95660F771F881F32
S1131A70DAF7880F9695879597F9089597F99F67F0
S1131A8080E870E060E008959FEF80EC0895002402
S1131A900A941616170618060906089500240A94CF
S1131AA012161306140605060895092E0394000C55
S1131AB011F4882352F0BB0F40F4BF2B11F460FFE4
S1131AC004C06F5F7F4F8F4F9F4F089557FD90580D
S1131AD0440F551F59F05F3F71F04795880F97FBEE
S1131AE0991F61F09F3F79F08795089512161306A8
S1131AF01406551FF2CF4695F1DF08C016161706D7
S1131B001806991FF1CF869571056105089408950B
S1131B10E894BB2766277727CB0197F908950BD064
S1131B20C4CFB5DF28F0BADF18F0952309F0A6CFAB
S1131B30ABCF1124EECFCADFA0F3959FD1F3950F5D
S1131B4050E0551F629FF001729FBB27F00DB11D3D
S1131B50639FAA27F00DB11DAA1F649F6627B00DCD
S1131B60A11D661F829F2227B00DA11D621F739FB6
S1131B70B00DA11D621F839FA00D611D221F749FC4
S1131B803327A00D611D231F849F600D211D822F0B
S1131B90762F6A2F11249F5750408AF0E1F0882352
S1131BA04AF0EE0FFF1FBB1F661F771F881F91505F
S1131BB05040A9F79E3F510570F060CFAACF5F3F18
S1131BC0ECF3983EDCF3869577956795B795F79592
S1131BD0E7959F5FC1F7FE2B880F911D969587951A
S1131BE097F9089597FB072E16F4009407D077FD14
S1131BF009D00E94250E07FC05D03EF490958195EE
S1131C009F4F0895709561957F4F0895052E97FB1A
S1131C101EF400940E941D0E57FD07D00E94390E39
S1131C2007FC03D04EF40C941D0E5095409530954E
S1131C3021953F4F4F4F5F4F089590958095709534
S1131C4061957F4F8F4F9F4F0895AA1BBB1B51E196
S1131C5007C0AA1FBB1FA617B70710F0A61BB70B18
S1131C60881F991F5A95A9F780959095BC01CD01BD
S1131C700895A1E21A2EAA1BBB1BFD010DC0AA1FC9
S1131C80BB1FEE1FFF1FA217B307E407F50720F0E1
S1131C90A21BB30BE40BF50B661F771F881F991F5C
S1131CA01A9469F760957095809590959B01AC01A5
S1131CB0BD01CF010895AEE0B0E0E1E6FEE00C9492
S1131CC003110D891E8986E08C831A8309838FEFA3
S1131CD09FE79E838D83AE01475E5F4F6F89788D4A
S1131CE0CE0101960E947D0EEF81F885E00FF11F71
S1131CF010822E96E4E00C941F11ACE0B0E0E3E80F
S1131D00FEE00C94F5107C016B018A01FC01178242
S1131D101682838181FFBDC1CE0101964C01F7017A
S1131D209381F60193FD859193FF81916F0188233F
S1131D3009F4ABC1853239F493FD859193FF819108
S1131D406F01853229F4B70190E00E946510E7CF56
S1131D50512C312C20E02032A0F48B3269F030F485
S1131D60803259F0833269F420612CC08D3239F00D
S1131D70803339F4216026C02260246023C02860A7
S1131D8021C027FD27C030ED380F3A3078F426FF04
S1131D9006C0FAE05F9E300D1124532E13C08AE072
S1131DA0389E300D1124332E20620CC08E3221F463
S1131DB026FD6BC1206406C08C3611F4206802C075
S1131DC0883641F4F60193FD859193FF81916F016B
S1131DD08111C1CF982F9F7D9554933028F40C5FC7
S1131DE01F4FFFE3F9830DC0833631F0833771F061
S1131DF0833509F05BC022C0F801808189830E5FBE
S1131E001F4F44244394512C540115C03801F2E06F
S1131E106F0E711CF801A080B18026FF03C0652DF0
S1131E2070E002C06FEF7FEFC5012C870E945A104B
S1131E302C0183012C852F77222E17C03801F2E064
S1131E406F0E711CF801A080B18026FF03C0652DC0
S1131E5070E002C06FEF7FEFC5012C870E944F1026
S1131E602C012C852068222E830123FC1BC0832D8A
S1131E7090E048165906B0F4B70180E290E00E9461
S1131E8065103A94F4CFF50127FC859127FE8191E2
S1131E905F01B70190E00E94651031103A94F1E0BF
S1131EA04F1A51084114510471F7E5C0843611F0FA
S1131EB0893639F5F80127FF07C060817181828175
S1131EC093810C5F1F4F08C060817181882777FD63
S1131ED08095982F0E5F1F4F2F76B22E97FF09C063
S1131EE090958095709561957F4F8F4F9F4F206897
S1131EF0B22E2AE030E0A4010E949710A82EA81860
S1131F0044C0853729F42F7EB22E2AE030E025C064
S1131F10F22FF97FBF2E8F36C1F018F4883579F08F
S1131F20B4C0803719F0883721F0AFC02F2F20615B
S1131F30B22EB4FE0DC08B2D8460B82E09C024FFD0
S1131F400AC09F2F9660B92E06C028E030E005C075
S1131F5020E130E002C020E132E0F801B7FE07C022
S1131F6060817181828193810C5F1F4F06C0608103
S1131F70718180E090E00E5F1F4FA4010E949710D2
S1131F80A82EA818FB2DFF77BF2EB6FE0BC02B2D55
S1131F902E7FA51450F4B4FE0AC0B2FC08C02B2D49
S1131FA02E7E05C07A2C2B2D03C07A2C01C0752CF3
S1131FB024FF0DC0FE01EA0DF11D8081803311F470
S1131FC0297E09C022FF06C07394739404C0822F33
S1131FD0867809F0739423FD13C020FF06C05A2CA1
S1131FE0731418F4530C5718732C731468F4B70152
S1131FF080E290E02C870E94651073942C85F5CFC5
S1132000731410F4371801C0312C24FF12C0B70127
S113201080E390E02C870E9465102C8522FF17C076
S113202021FF03C088E590E002C088E790E0B70193
S11320300CC0822F867859F021FD02C080E201C0D5
S11320408BE227FD8DE2B70190E00E946510A51494
S113205038F4B70180E390E00E9465105A94F7CFFA
S1132060AA94F401EA0DF11D8081B70190E00E9469
S11320706510A110F5CF332009F451CEB70180E2E9
S113208090E00E9465103A94F6CFF701868197811B
S113209002C08FEF9FEF2C96E2E10C941111FC012A
S11320A00590615070400110D8F7809590958E0F7F
S11320B09F1F0895FC016150704001900110D8F7F2
S11320C0809590958E0F9F1F08950F931F93CF9324
S11320D0DF93182F092FEB018B8181FD03C08FEF54
S11320E09FEF20C082FF10C04E815F812C813D8113
S11320F0421753077CF4E881F9819F012F5F3F4F1A
S113210039832883108306C0E885F985812F0995D2
S1132110892B29F72E813F812F5F3F4F3F832E83E9
S1132120812F902FDF91CF911F910F910895FA0184
S1132130AA27283051F1203181F1E8946F936E7F02
S11321406E5F7F4F8F4F9F4FAF4FB1E03ED0B4E0F3
S11321503CD0670F781F891F9A1FA11D680F791F34
S11321608A1F911DA11D6A0F711D811D911DA11D45
S113217020D009F468943F912AE0269F1124301955
S1132180305D3193DEF6CF010895462F4770405DF0
S11321904193B3E00FD0C9F7F6CF462F4F70405D9F
S11321A04A3318F0495D31FD4052419302D0A9F7FA
S11321B0EACFB4E0A6959795879577956795BA95F4
S11321C0C9F700976105710508959B01AC010A2EBA
S11321D006945795479537952795BA95C9F7620F91
S11321E0731F841F951FA01D08952F923F924F9235
S11321F05F926F927F928F929F92AF92BF92CF9293
S1132200DF92EF92FF920F931F93CF93DF93CDB79B
S1132210DEB7CA1BDB0B0FB6F894DEBF0FBECDBF13
S113222009942A88398848885F846E847D848C84E4
S11322309B84AA84B984C884DF80EE80FD800C81ED
S11322401B81AA81B981CE0FD11D0FB6F894DEBFD0
S10F22500FBECDBFED010895F894FFCF40
S113225C2D252E32692E252E326900425044203A07
S113226C20252E32692E252E3269206D20212564DD
S113227C00425054203A20252E32692E252E3269E4
S113228C207300252E33692072706D00252E32695F
S113229C2E252E3269204B4D2F6800252E32692EA7
S11322AC252E326920560048617665206120676FBF
S11322BC6F64207269646500202020205468616E6C
S10D22CC6B20796F752020200000BC
S9030000FC
